:020000040800F2
:10000000D80C0020E90100080915000801150008B6
:100010000515000841130008F51D00080000000048
:100020000000000000000000000000007D1C00082F
:100030004513000800000000A3190008911D0008E6
:10004000030200080302000803020008030200087C
:10005000030200080302000803020008030200086C
:10006000030200080302000803020008030200085C
:10007000030200080302000803020008030200084C
:10008000030200080302000803020008030200083C
:10009000030200080302000803020008030200082C
:1000A000030200080302000803020008030200081C
:1000B000030200080302000803020008030200080C
:1000C00003020008030200080302000803020008FC
:1000D00003020008030200080302000803020008EC
:1000E00003020008030200080302000800F002F8FF
:1000F00000F06BF80AA090E8000C82448344AAF157
:100100000107DA4501D100F060F8AFF2090EBAE854
:100110000F0013F0010F18BFFB1A43F0010318473B
:10012000782F0000982F000010F8013B0A4413F0CC
:10013000030408BF10F8014B1D1108BF10F8015B44
:10014000641E05D010F8016B641E01F8016BF9D133
:10015000002D15D010F8014B03F00C030C2BA1EB74
:1001600004040ABF10F8013BA4EB8314A4EB03249E
:1001700005F1010314F8016B5B1E01F8016BF9D561
:10018000914238BF10F8013BD1D3704700230024BF
:1001900000250026103A28BF78C1FBD8520728BF97
:1001A00030C148BF0B607047662902F0DD82002035
:1001B00070471FB500F05CFB04000020002101F037
:1001C000FFFEE0601FBD10B510BD00F051FC1146F0
:1001D000FFF7EFFF01F096FE00F06FFC03B4FFF7AE
:1001E000F2FF03BC00F0B2FC094880470948004711
:1001F000FEE7FEE7FEE7FEE7FEE7FEE7FEE7FEE7D7
:10020000FEE7FEE704480549054A064B7047000033
:10021000951D0008ED000008D8060020D80C00202D
:10022000D8080020D80800200FB41CB5074B06AA38
:100230007B4469460090059800F001FB0020694668
:1002400000F010FB1CBC5DF814FB00003106000040
:100250002DE9F0474FF0000A89460446C0F820A077
:100260002046E1688847002876D0252806D0D4E9C2
:1002700001219047206A401C2062F1E7E168204696
:1002800000258847C4F81CA006460027C4F818A01B
:100290002A2E09D0304601F0DBFD38B304EB870885
:1002A000303EC8F8186019E059F8041B204604EBEA
:1002B00087029161E1688847012F064618D1E069FD
:1002C000002820DA25F020051DE0D8F8180000EB02
:1002D000800006EB40003038C8F818002046E1687E
:1002E0008847064601F0B4FD0028EED1012F0AD060
:1002F0002E2E08D12046E16888477F1C0646022F33
:1003000045F02005C4DBA069002803DA404245F02F
:100310000105A061E80701D025F01005B6B1A6F1EE
:100320004100192802D8203645F400654A46314676
:10033000204625604D46FFF737FF58B1012806D00B
:10034000ED1D25F0070000F1080989E704E005F13B
:10035000040985E730468AE7206ABDE8F08710B5D2
:10036000203AC0F00B80B1E81850203AA0E81850AD
:10037000B1E81850A0E81850BFF4F5AF5FEA027C6E
:1003800024BFB1E81850A0E8185044BF18C918C0DD
:10039000BDE810405FEA827C24BF51F8043B40F87E
:1003A000043B08BF7047D20728BF31F8023B48BF63
:1003B00011F8012B28BF20F8023B48BF00F8012BA1
:1003C00070474FF0000200B5134694469646203918
:1003D00022BFA0E80C50A0E80C50B1F12001BFF4FE
:1003E000F7AF090728BFA0E80C5048BF0CC05DF864
:1003F00004EB890028BF40F8042B08BF704748BFB2
:1004000020F8022B11F0804F18BF00F8012B704725
:1004100070477047704770472DE9FF4F0C461E46E6
:100420004FF0FF378BB0D2E90001DDF860800A9011
:100430008A46C1F30A5505B93D46002108464FF0EA
:100440000000BAF1000F00F4400005DA00EB800074
:100450004FF4400101EA50004FEA9059B9F1010F01
:1004600000DDB9460A9850EA4A000ED044F6105012
:10047000A5F2FF3545432F14B8F1000F1ED0754289
:10048000291E1EDDC9F100021CE0B8F1010F4FF07A
:10049000000001D0302103E0F24305E02154401C6C
:1004A000B042FBDB30460022002121540B99C1F8F9
:1004B0000880C1E900200FB0BDE8F08FBD1B6D1CA6
:1004C000DEE74A4600DA694206A800F05BFA06ABAE
:1004D00093E8070003AB83E8070050460A9900F051
:1004E0003CFB8DE80700A0F500501F3800900398F2
:1004F000002D0ADD42F21F014A460844002303A9E9
:100500000390684600F0A5FD09E0A0F500504A46BA
:100510001F38002303A90390684600F0AFFD8DE863
:1005200007000004000C03D04FF0FF30410800E04A
:100530001046B8F1000F03D00022009215461EE0CD
:10054000751E05D400F098F9303262556D1EF9D54C
:10055000B3460122084302D000227F1C04E0207829
:10056000302801D100227F1E002A099784D01DE087
:10057000112D07DA00F080F9303262556D1C50EA17
:100580000102F5D1084302D00098C8B10EE0002165
:10059000681E05E0235C625C63542254401E491CC3
:1005A0008142F7DBAB46A81B401E0990002004F8EF
:1005B0000B000B98099AC0F80880C0E9002B7AE775
:1005C00011264FF0000857E72DE9F04F8846044602
:1005D000D21D22F0070191B0D1E90001CDE90A0155
:1005E00001F022FC02460B98C00F01D02D2007E03D
:1005F0002068810701D52B2002E0202101EAC000FC
:10060000032A099001D0072A05DB0346414620460C
:1006100000F078F90BE12078800601D5E06900E070
:100620000620B8F1650F814606D0B8F1660F18D0E4
:10063000B8F1670F70D131E00020B9F1110F0090CF
:1006400001DB112301E009F101030AAA01A90CA8A9
:10065000FFF7E2FEDDE90C70002609F10105834693
:1006600047E001204B4600904FF000470AAA01A93D
:100670000CA8FFF7D1FEDDE90DB00C995D46002610
:1006800010B909F101000D18B9EB050003D4C0F150
:10069000FF3609F10105A5EB09002BE0B9F1010FC7
:1006A00001DA4FF001090020B9F1110F009048461E
:1006B00001DD112300E003460AAA01A90CA8FFF7F7
:1006C000ABFEDDE90C704D4600268346207800071E
:1006D0000AD4AB4500DA5D4601A8012D04DD4119BD
:1006E00011F8011C302907D04F4502DA17F1040F29
:1006F00004DA012082460FE06D1EEEE7002F02DCD7
:10070000ED1B3E4403E0781CA84200DD7D1CB81BB5
:1007100000F1010A4FF000472078000703D4AA45F2
:1007200001DB4FF0FF3A0021B7F1004F0DF1430814
:100730008DF8431024D002202B23002F01DA7F42B2
:100740002D230A21021EA0F1010000DC5FB197FBFE
:10075000F1FC97FBF1F201FB1C7C17460CF1300C0D
:1007600008F801CDEEE7A8F1010003702188090522
:1007700001D5452100E06521A0F1010800F8011C28
:1007800009980FA9A1EB0807FF1D00B1012041192D
:1007900001EBEA70A1693844081A401EA061207874
:1007A000C00602D42046AFF30080099828B1D4E9EE
:1007B00001219047206A401C20622078C00622D583
:1007C0002046AFF300801EE0002E04DBB34502DDBF
:1007D00001A8805D00E03020D4E901219047206A23
:1007E000401C2062761CAAF101005FEA000A0AD1CF
:1007F00000F03EF8C0680168405CD4E901219047F0
:10080000206A401C2062281EA5F10105DCDC07E0FF
:10081000D4E9012118F8010B9047206A401C20629E
:10082000381EA7F10107F3DC2046AFF30080032058
:1008300011B041E601694A1C02610878704700B5B1
:100840008FB0CDE901310021059105497944CDE909
:10085000031011466846FFF7FBFC0FB000BD000017
:10086000E5FFFFFF0A6802F8010B0A60704700000D
:10087000004870479806002030B5B0F10A024FEAF0
:10088000900E71F100034EEA817EB0EB0E0061EB39
:1008900091014FEA101E4EEA017E10EB0E0041EB73
:1008A00011114FEA102E4EEA016E10EB0E0041EBD3
:1008B00011214FEA104E4EEA014E10EB0E0041EBB3
:1008C0001141401841F100014FEAD00040EA417067
:1008D0004FEAD10110EB80054FEA810444EA90749D
:1008E00044EB01046D1944EB0404521BA3414FF087
:1008F000000348BF0A3200D530BD401C41F1000161
:1009000030BD00002DE9F0411F4604460326016872
:10091000072A01F4006004DB08B116A505E016A55E
:1009200003E008B115A500E015A521F01000206036
:10093000A069C01EA0610FB1401EA0612046AFF3A8
:1009400000804FB1D4E9012138469047206A401C0D
:100950002062C01C206206E0206AFAE7D4E9012187
:1009600015F8010B9047761EF8D22046AFF30080B1
:10097000BDE8F0814E414E006E616E00494E46006A
:10098000696E66002DE9F047814616468AB0354803
:1009900078440DC88DE80D0032487844801C03ACC3
:1009A0000DC884E80D0041F69B300844372190FBC8
:1009B000F1F290FBF1F5A5F1800501FB12041B3C5F
:1009C00002D56442012000E00020DFF898A08046B4
:1009D0000027FA44AAF1BE0A0EE0E0070AD0324628
:1009E000684607EB470101230AEB810100F046FB53
:1009F0008DE8070064107F1C002CEED1194F7F4456
:100A0000AE3F19E0E80715D007EB04100DF1180A06
:100A100090E80E008AE80E00C068F04201D19819F3
:100A200008903246012306A903A800F027FB03AB78
:100A300083E807006D10641C002DE3D14FF0010323
:100A400032466946B8F1000F03A802D000F001FB5E
:100A500001E000F013FBC9E90001C9F808200AB061
:100A6000BDE8F087EC2600000048704778060020BB
:100A70007546FFF7F9FFAE4605006946534620F07C
:100A80000700854618B020B5FFF7BCFBBDE8204045
:100A90004FF000064FF000074FF000084FF0000B3A
:100AA00021F00701AC46ACE8C009ACE8C009ACE8ED
:100AB000C009ACE8C0098D46704710B50446AFF3D5
:100AC00000802046BDE81040FFF788BB4FF0013C96
:100AD00050F8042B51F8043B9A4221D1A2EB0C03AD
:100AE000934313EACC1317D150F8042B51F8043B6D
:100AF0009A4215D1A2EB0C03934313EACC130BD10A
:100B000050F8042B51F8043B9A4209D1A2EB0C0394
:100B1000934313EACC13DBD04FF00000704700BFC3
:100B2000D01A01BAB1FA81F101F0180122FA01F0EC
:100B3000CB40C1F12001DBB2C0B2C01A2CFA01F3E4
:100B4000D11A914311EAC311E6D170470149182027
:100B5000ABBEFEE72600020070475FEA400C08BF0C
:100B600091F0000F4FEA8C234FEAC12243EA515122
:100B70004FEA1C5018BF00F5F0404FEA300018BF94
:100B800041F000415FEA6C5C00F02980BCF1FF3F5E
:100B900008BF40F080407047130C06BF12044FF0AE
:100BA000100C4FF0000C130E04BF12020CF1080CD5
:100BB000130F04BF12010CF1040C930F04BF920039
:100BC0000CF1020CD30F04BF52000CF1010C1146C2
:100BD0004FF00002A0F11F00A0EB0C00704711F0D5
:100BE000004F08BF704731F000413FF4D5AF0B0C08
:100BF00006BF09044FF0100C4FF0000C0B0E04BFA1
:100C000009020CF1080C0B0F04BF09010CF1040CD4
:100C10008B0F04BF89000CF1020CCB0F04BF4900FD
:100C20000CF1010CCCF12003A0EB0C0022FA03F331
:100C300002FA0CF241EA030100F10100704720F0D2
:100C40007F4C80EA030023F07F47ACEB070303F5FA
:100C50007C5300F0004003F1FF032DE980494FEA87
:100C6000154B09B44FEA144325EA0B4E24EA034816
:100C70000FF2042606EB132749083E785FEA32029A
:100C800003FB0667C7F5000707FB06F64FEA543774
:100C90004FEAD64606F1020607FB066CCCF1005C73
:100CA0004FEA1C472CEA074C07FB06F40CFB06F541
:100CB00004EB15464FEA961634BF00204FF0004073
:100CC0004FEAD13706FB07FC4FEA1C4C0CFB0BF735
:100CD000D21B03FB0CF761EB07010CFB0EF7B0EB2B
:100CE000074072EB17420CFB08F734BFA2EB074238
:100CF000B2EB074261EB17414FEA0C444FEA910710
:100D000006FB07FC4FEA1C4C0CFB0BF7B0EBC74093
:100D100072EB573203FB0CF734BFA2EBC742B2EBC6
:100D2000C74261EB57310CFB0EF7B0EBC70072EB1B
:100D300057720CFB08F734BFA2EBC702B2EBC70235
:100D400061EB5771039F4FEA816141EA921104EB15
:100D5000CC044FEAD1374FEA826206FB07FC42EA35
:100D600090124FEA80604FEA1C4C0CFB0BF7D21B31
:100D700003FB0CF761EB07010CFB0EF7B0EB074030
:100D800072EB17420CFB08F734BFA2EB0742B2EB41
:100D9000074261EB17414FEA8C554FEA910704EB8C
:100DA0009C2406FB07FC4FEA1C4C0CFB0BF7B0EB3A
:100DB000C74072EB573203FB0CF734BFA2EBC742BC
:100DC000B2EBC74261EB57310CFB0EF7B0EBC7003B
:100DD00072EB57720CFB08F734BFA2EBC702B2EB01
:100DE000C70261EB577115EB4C254FEA816141EA6F
:100DF00092114FEA82624FEAD13742EA901206FB23
:100E000007FC44F100044FEA80604FEA1C4C0CFBE5
:100E10000BF7D21B03FB0CF761EB07010CFB0EF782
:100E2000B0EB074072EB17420CFB08F734BFA2EBA4
:100E30000742B2EB074261EB174115EB1C154FEA75
:100E4000813141EA92414FEA823242EA90424FEACE
:100E500080304FEA0C7644F1000448EA03434EEA3E
:100E60000B484FF0000EB2EB080C71EB030724BFE8
:100E7000624639464EEB0E0E4FF0000B0018524101
:100E800049414BEB0B0BB2EB080C71EB03077BF109
:100E9000000B24BF624639464EEB0E0E4FF0000B9E
:100EA0000018524149414BEB0B0BB2EB080C71EBB4
:100EB00003077BF1000B24BF624639464EEB0E0E52
:100EC00051EA020718BF46F0010616EB0E7655F1FF
:100ED000000254F1000103D5BDE88901BDE8008896
:100EE000BDE88901BDE80048B619524141EB010156
:100EF000A3F10103704780807F7E7D7C7B7A7978C7
:100F0000777676757473727171706F6E6E6D6C6CCE
:100F10006B6A6A6968686766666564646363626170
:100F20006160605F5F5E5E5D5D5C5C5B5B5A5A59F1
:100F3000595858575756565555555454535352525D
:100F40005251515050504F4F4F4E4E4D4D4D4C4CB5
:100F50004C4B4B4B4A4A4A494949484848474747FE
:100F6000474646464545454444444443434343423B
:100F7000424242414141002B9C4630D477002BD065
:100F80001CB54FEA370703B44FF010004FF01001C3
:100F9000BAF1000F06D0BCF1000FDCBF40F0080032
:100FA00040F008014FF000000FBCBDE810400BF10D
:100FB000010BBBF1010F08BF5FEA170722BF12F157
:100FC000010211F101014FF0004143F1000300F073
:100FD000004043EA00007047F9D35708D0E746EADB
:100FE000064613F1400F4FEA16461FDD13F1200F9E
:100FF000DFBF16430A46002120335B42BED0C3F157
:10100000200746EA064602FA07F74FEA164646EA7E
:101010000706C3F1200722FA03F201FA07F721FAC3
:1010200003F14FF0000342EA0702A7E746EA02068F
:1010300046EA06464FEA164646EA0106BCBF46EABD
:101040000646360C4FF000034FF000024FF000014F
:1010500094E72DE9804C9A46934670B491E83800A5
:1010600007C831EA400C48BF34EA430C03D5FFF708
:10107000E6FDFFF780FFF0BCBDE8008C2DE9804C59
:101080009A46934670B491E8380007C810F0804F34
:1010900008BF13F0804F03D100F005F8FFF76BFF96
:1010A000F0BCBDE8008C20F07F4780EA030023F00D
:1010B0007F4C07EB0C03A3F57C5300F00040A3F139
:1010C000FE0392F0000F00F0B38095F0000F00F0E7
:1010D00077802DE901494FEA11404FEA144621EA91
:1010E000004800FB06FC24EA064708FB06F607FB5F
:1010F00008F800FB07F718EB06484CEB164C4FEAD4
:10110000124B18EB07484FEA15464CEB174022EA02
:101110000B4E0BFB06FC25EA06470EFB06F607FB0B
:101120000EFE0BFB07F71EEB064E4CEB164C4FF07A
:1011300000061EEB074E4CEB174B18EB0B0840F16B
:10114000000018EB0E0B58EB000840F100008F1A5E
:101150004FF000013CBFC943661B14BFB5EB040C44
:1011600000213CBFC943F61B4FEA17444EEA8E0EDE
:1011700027EA04454FEA1C4704FB07622CEA074CA8
:1011800005FB07F70CFB05F604FB0CFC16EB07460A
:1011900042EB174216EB0C4642EB1C421BEB0606D9
:1011A00058EB0202414146EA9E0601D5BDE801899D
:1011B000B619524141EB0101A3F10103BDE80189D8
:1011C0004FEA14454FEA114724EA054621EA074C45
:1011D00005FB07F406FB07F70CFB06F105FB0CFC0F
:1011E00011EB074144EB17444FEA124711EB0C4156
:1011F00044EB1C4422EA074C05FB07F206FB07F709
:101200000CFB06F605FB0CFC16EB074642EB1742FF
:1012100016EB0C4642EB1C456A1854F1000148BF1E
:101220007047B619524141EB0101A3F10103704728
:1012300095F0000F37D04FEA11424FEA144721EAE8
:10124000024624EA074C02FB07F106FB07F70CFBFA
:1012500006F402FB0CFC14EB074441EB17414FEA88
:10126000154714EB0C4441EB1C4125EA074C02FBEB
:1012700007F506FB07F70CFB06F602FB0CFC16EB6A
:10128000074645EB174516EB0C4645EB1C42121979
:1012900051F1000148BF7047B619524141EB0101BD
:1012A000A3F1010370474FEA14454FEA114724EABE
:1012B000054621EA074C05FB07F106FB07F70CFB87
:1012C00006F24FF0000605FB0CFC12EB074241EB67
:1012D000174112EB0C4251EB1C4148BF704792186A
:1012E00041EB0101A3F101037047000008B50121A2
:1012F000082000F057FB0120ADF8000010208DF809
:10130000030003208DF802006946044800F021F82C
:101310000121024800F0F2F808BD0000000C014075
:1013200010B50121054800F0E7F84FF47A7000F09D
:10133000B9FD0121014800F0E1F810BD000C0140A9
:1013400000BFFEE77047002100E0491C8142FCD34A
:1013500070472DE9F04102460025002600200023B9
:101360000024002791F803C00CF00F0591F803C08A
:101370000CF0100CBCF1000F03D091F802C04CEA45
:10138000050591F800C0BCF1000F31D014680020B1
:101390002BE04FF0010C0CFA00F3B1F800C00CEA9E
:1013A00003069E4220D183004FF00F0C0CFA03F786
:1013B000BC4305FA03FC4CEA040491F803C0BCF1F9
:1013C000280F06D14FF0010C0CFA00FCC2F814C033
:1013D0000AE091F803C0BCF1480F05D14FF0010CB1
:1013E0000CFA00FCC2F810C0401C0828D1D31460CD
:1013F000B1F800C0BCF1FF0F34DD546800202EE0CE
:1014000000F1080C4FF0010808FA0CF3B1F800C025
:101410000CEA03069E4221D183004FF00F0C0CFA18
:1014200003F7BC4305FA03FC4CEA040491F803C03B
:10143000BCF1280F05D100F1080C08FA0CF8C2F82D
:10144000148091F803C0BCF1480F07D100F1080CDB
:101450004FF0010808FA0CF8C2F81080401C082868
:10146000CED35460BDE8F081F0B50A4600230024D5
:101470000021002500F00046B6F1004F02D11D4EBC
:10148000F16901E01B4E7168C0F3034583B200F4BB
:101490004016B6F5401F08D121F07061154E7668F0
:1014A00026F07066134F7E6012E000F48016B6F5E9
:1014B000801F06D1032606FA05F4A14341F07061AE
:1014C00006E0460D360103FA06F6B14341F07061BD
:1014D00022B1460D360103FA06F6314300F000460C
:1014E000B6F1004F02D1034EF16101E0014E71608F
:1014F000F0BD00000000014041617047016170478C
:1015000000BFFEE700BFFEE7704770B5002418E09B
:1015100004F1B000002100F084F90021084600F039
:1015200080F90021102000F07CF9002505E0012160
:10153000002000F076F9681CC5B2802DF7DB601C36
:10154000C4B2082CE4DB70BD10B540210748FFF79A
:10155000D5FF80210548FFF7D1FF80210348FFF721
:10156000CBFF40210148FFF7C7FF10BD000C014031
:1015700010B540210548FFF7C1FF80210348FFF760
:10158000BBFF80210148FFF7B9FF10BD000C0140EF
:1015900010B540210348FFF7B1FF40210148FFF794
:1015A000ABFF10BD000C014008B50121092000F07F
:1015B000F9F901214248FFF757FFC020ADF80000BC
:1015C00010208DF8030003208DF8020069463D4885
:1015D000FFF7BFFEC0213B48FFF790FF44F62060B5
:1015E000FFF7B1FE0021AE2000F01BF900210846F4
:1015F00000F017F90021102000F013F9002140201D
:1016000000F00FF90021B02000F00BF9002181203B
:1016100000F007F90021FF2000F003F90021A120CC
:1016200000F0FFF80021A62000F0FBF80021A82020
:1016300000F0F7F800213F2000F0F3F80021C82067
:1016400000F0EFF80021D32000F0EBF8002108466D
:1016500000F0E7F80021D52000F0E3F80021802019
:1016600000F0DFF80021D82000F0DBF80021052091
:1016700000F0D7F80021D92000F0D3F80021F120A4
:1016800000F0CFF80021DA2000F0CBF80021122082
:1016900000F0C7F80021DB2000F0C3F80021302063
:1016A00000F0BFF800218D2000F0BBF800211420CD
:1016B00000F0B7F80021AF2000F0B3F808BD00003B
:1016C00000023000000C014070B504460D4605F1E3
:1016D000B000002100F0A5F8102141EA141000210B
:1016E00000F09FF804F00F00002100F09AF870BDA0
:1016F0002DE9F04180460F4615461E4639464046C4
:10170000FFF7E2FF002407E006EB4511085D012129
:1017100000F087F8601CC4B2102CF5DB781CC1B255
:101720004046FFF7D1FF002409E06900491C06EBA1
:101730000111085D012100F074F8601CC4B2102C86
:10174000F3DBBDE8F08100002DE9F04707460E46C7
:101750009046994600250024A8F12000C5B27F2FAD
:1017600002DD0027B01CC6B2B9F1100F24D13146FA
:101770003846FFF7A9FF002408E004EB0511194AD9
:10178000505C012100F04DF8601CC4B2082CF4DB61
:10179000701CC1B23846FFF797FF002409E004EB44
:1017A000051108310F4A505C012100F03AF8601C25
:1017B000C4B2082CF3DB12E031463846FFF784FF51
:1017C00000240AE005EB4501074A02EB4101085DF0
:1017D000012100F026F8601CC4B2062CF2DBBDE843
:1017E000F0870000942900086C2700082DE9F041DB
:1017F00005460E4614461F460EE022783B4631460B
:101800002846FFF7A1FF05F10800C5B2782D02DDDB
:101810000025B01CC6B2641C20780028EDD1BDE8BC
:10182000F08170B504460D461DB1E0B200F046F8F7
:1018300002E0E0B200F02CF870BD00002DE9F041AC
:1018400005462C4640211148FFF756FE002619E0B8
:10185000274607F08007802F04D180210B48FFF72F
:101860004DFE03E080210948FFF746FE6006040EA6
:1018700040210648FFF742FE40210448FFF73CFEA6
:10188000701CC6B2082EE3DBBDE8F081000C0140FD
:1018900010B50446FFF758FE7820FFF7CFFFFFF79B
:1018A00077FE0020FFF7CAFFFFF772FE2046FFF722
:1018B000C5FFFFF76DFEFFF75BFE10BD10B50446D8
:1018C000FFF742FE7820FFF7B9FFFFF761FE4020E7
:1018D000FFF7B4FFFFF75CFE2046FFF7AFFFFFF70F
:1018E00057FEFFF745FE10BDFCB502462F2300BF93
:1018F00000208DF805008DF804008DF803008DF8A8
:10190000020001208DF8010007208DF800002F2330
:1019100000250521002409E0581EC3B2072C02DA75
:10192000601CC4B202E00024481EC1B2505C802793
:101930002741384008B90029EEDCA3F10800C5B200
:101940001EE0052118E0481E1DF8000000F0800090
:1019500018B1002901DD012600E000261DF8010074
:101960004006000E0DF801001DF801003044C0B221
:101970000DF80100481EC1B2FF29E4DB681EC5B2A4
:10198000002DDED1002106E0505C1DF8017078408A
:101990005054481CC1B20529F6DD082BA8DC10788C
:1019A000FCBD704729B1064A92690243044B9A6113
:1019B00004E0034A92698243014B9A617047000038
:1019C00000100240002107E0002201E0531C9AB2FF
:1019D0008242FBDB4B1C99B20429F5DB7047000007
:1019E00008B501210820FFF7DDFF4FF44070ADF886
:1019F000000014208DF8030003208DF802006946D2
:101A00000548FFF7A6FC4FF48070034910310860C9
:101A10004000086008BD0000000C01402DE9FC4FAB
:101A200004460D464FF00009CA46CB466006040E38
:101A300000BF00BF00F002F9ABF1010000F0FF0BA6
:101A4000BBF1000F00D136E000F0D6F8204600F0E0
:101A5000BBF800B1EEE7284600F0B6F800B1E9E7C0
:101A600000F0CAF8611CC8B200F0AEF800B1E1E7BE
:101A7000002000F06DF88146002000F069F88246F1
:101A8000012000F065F8804600F0D8F88DF8054098
:101A90008DF80450601CC0B28DF803008DF80290E0
:101AA0008DF801A000208DF800006846FFF71CFFAC
:101AB00006464645BDD100BF49EA0A273846BDE87B
:101AC000FC8F00002DE9F05F07210020FFF7A6FF43
:101AD000834600F065FB8046084A094B00F074FB22
:101AE00006464FF06632074B00F06CFC044600F0EF
:101AF0007DFA82465046BDE8F09F00007B14AE4759
:101B0000E17A943F6612714010B54FF400700F49AE
:101B100008600220FFF756FF4FF480700B49086001
:101B20000520FFF74FFF09480838006800F40070EF
:101B300008B1012400E000244FF480700349091D1E
:101B400008600320FFF73EFF204610BD100C014047
:101B500070B5064608250DE0FFF7D6FF20B16006F8
:101B6000040E44F0010403E06006040E04F0FE04D9
:101B7000681EC5B2002DEFD1304600F003F82046B4
:101B800070BD000010B5044624B94FF400700D4933
:101B9000086004E04FF400700A49091F0860022041
:101BA000FFF710FF4FF480700649091F08600620F8
:101BB000FFF708FF4FF48070024908600320FFF729
:101BC00001FF10BD140C0140F0B5044608250CE0DF
:101BD00004F0800008B1012600E000263046FFF73F
:101BE000D1FF6006040E681EC5B2002DF0D1FFF7CC
:101BF0008BFF07463846F0BD00B54FF400700E4924
:101C000008600520FFF7DEFE4FF480700A49086087
:101C10000520FFF7D7FE4FF400700749091D086043
:101C20000520FFF7CFFE4FF480700349091D0860BF
:101C30000520FFF7C7FE00BD100C014000B54FF4B2
:101C400080700D4908600520FFF7BCFE4FF400705E
:101C5000094908600520FFF7B5FE4FF4807006497A
:101C6000091F08600520FFF7ADFE4FF40070024920
:101C7000091F086000BD0000140C0140704710B53A
:101C800000F002F810BD00000CB50020019000909B
:101C90003348006840F480303149086000BF304864
:101CA000006800F4003000900198401C01900098FA
:101CB00018B90198B0F5A06FF1D12948006800F477
:101CC000003010B10120009001E000200090009849
:101CD000012843D12348006840F0100021490860E2
:101CE0000846006820F0030008600846006840F0DD
:101CF000020008601A484068194948600846406870
:101D000048600846406840F4806048600846406883
:101D100020F47C1048600846406840F4E8104860B1
:101D20000846006840F08070086000BF0C480068FA
:101D300000F000700028F9D00948406820F0030046
:101D4000074948600846406840F00200486000BF0C
:101D50000348406800F00C000828F9D10CBD0000D1
:101D60000010024000200240042808D14FF0E0217A
:101D7000096941F004014FF0E022116107E04FF0E2
:101D8000E021096921F004014FF0E0221161704760
:101D90007047000010B51348006840F00100114979
:101DA000086008464068104908400E4948600846E7
:101DB00000680E4908400B4908600846006820F496
:101DC000802008600846406820F4FE0048604FF418
:101DD0001F008860FFF753FF4FF000600449086060
:101DE00010BD0000001002400000FFF8FFFFF6FEEB
:101DF00008ED00E000BFFEE700B591B040220949C0
:101E000001A8FEF7ACFA01AB002206215020FFF733
:101E10006FFC01AB012206216020FFF769FC11B0C5
:101E200000BD0000C42F0008490050EAC12018BFBF
:101E300004204A0D18BF40F0010040F2FF72B2EBDF
:101E4000515F08BF40F00200012808BF052070471D
:101E500030380A2801D20120704700207047000066
:101E600010B56FF00400FFF77FFF0A4800680A49C9
:101E7000B0FBF1F0094908700846007800EB40011A
:101E8000C1EBC0104FF6FF7101EAC00004490880A1
:101E900010BD00000000002000127A001400002095
:101EA000160000200146114A12884A434FF0E023F1
:101EB0005A6100229A611A46126942F001021A61BF
:101EC00000BF4FF0E022106900F001021AB100F4E7
:101ED0008032002AF5D04FF0E022126922F0010290
:101EE0004FF0E0231A6100229A617047160000202B
:101EF00010B5034B002204215A20FFF7F9FB10BD57
:101F0000B8040020AAB01DA103C9CDE9280100240E
:101F1000502114A8FEF755FA50216846FEF751FAF1
:101F2000FFF79EFFFFF740FBFFF7EFFAFFF7DEF941
:101F3000FFF756FDFFF7DCFF1EE0FFF7C3FD044689
:101F4000204600F029FB05462A460B460DA114A8A1
:101F5000FEF76AF9102314AA04212820FFF746FC93
:101F60000A49204600F0CFFB04D2FFF745FFFFF7F8
:101F7000D7F901E000F00CF8DFE7000054656D20B0
:101F80003A200000252E31660000000000001442B7
:101F900000B591B04022094901A8FEF7E0F901AB74
:101FA000002206215020FFF7A3FB01AB01220621EE
:101FB0006020FFF79DFB11B000BD0000842F0008DA
:101FC00010B500290AD00878002807D005487844C1
:101FD000FEF77CFD002801D0002010BD02487844A7
:101FE00010BD0000EA100000E210000021F00042E5
:101FF000A2F16052B2F5801F01F0004328BFD2F178
:102000007F6C0BD95FEA001C43EAC20242EB5070BE
:1020100018BF704728BF20F001007047B2F5801F3D
:10202000BCBF184670474FEA410C1CF5001F02D296
:10203000084600F063BB70B500F070F9000000893D
:10204000FFF7F6BF4FF00040A0F58000704700009A
:1020500010B591EA030F48BF83F0004300F1BA8145
:10206000841A71EB030C05D2121943EB0C03001B0D
:1020700061EB0C01DFF824E14FEA1154A4EB135C8F
:102080001EEA430F18BF9EEA445F73D023EA0E0393
:10209000DCF1200E21EA045143F4801332D322FAFA
:1020A0000CFE10EB0E0023FA0CFE41EB0E01CCF1FE
:1020B000200E03FA0EFE10EB0E0051F10001B1F5F7
:1020C000801FCCF1200E32D201EB045112FA0EF235
:1020D000BDE8104058BF7047401C38BF5FEA42025D
:1020E00018BF7047002814BF20F0010041F1000123
:1020F0004FEA410313F5001F38BF7047A1F1C041FB
:1021000000F05AB9012A43EB0302ACF1200CDCF1D8
:102110001F0E32BF4FF0000E23FA0CF310EB03003A
:1021200041EB0451B4EB115FD0D0A1EB045101F5A8
:10213000801149085FEA300001EB04510ED350F1E1
:10214000000038BF12FA0EFE08D1BDE81040C9E702
:10215000401C38BF5FEA4202CAD1C3E7BDE8104065
:102160004FEA410313F5001F38BF7047A1F1C0418A
:1021700000F022B99EEA445F08D011EA5E0FBDE884
:10218000104004BF01F0004100207047BDE810403E
:1021900070B500F0C3F800BF64FBBE3E0000E0FF76
:1021A000B0FA80F310FA03F10AD0C3F11D0303F56E
:1021B00080634FEA41504FEA035202EBD12170474E
:1021C0004FF0000070470000DFF848C170B51CEA0E
:1021D000111E1EBF1CEA13159EEA0C0F95EA0C0F88
:1021E00000F06F8081EA030423EA4C134EEAD47EA8
:1021F00021EA4C1141F4801143F48013AE44A1FB59
:10220000024CA0FB0365AEF17F7E361955EB0C0541
:10221000A1FB034C4CF10003A0FB021C16EB0C06C7
:10222000654153F10003094218BF46F0010613F45B
:10223000007F0BD14FEA03314FEA0530340341EA06
:10224000155140EA16506FF003020AE04FEAC3212D
:102250004FEAC520F40241EA555140EA56506FF06A
:10226000020202EB2E4201EB025585EACE710AD042
:102270005FEA440C18BF24F0004450F1000041F123
:10228000000120EAD47040F2FE7C624500D270BDAD
:10229000A84214BF4FF080444FF04044002E08BFC6
:1022A0000024BEF1806FA8BFA1F1C041BDE870401D
:1022B00080F282804FF0000001F1C04101F0004146
:1022C00070479EEA0C0F0CEA131518BF95EA0C0F25
:1022D00006D04FF0000081EA030E0EF0004170BD01
:1022E00000F01CF88900013E00F007B800F009B8C2
:1022F0004FEA430C5FEA5C5C08D081EA030100F01E
:102300005BB84FEA410C5FEA5C5CF6D14FF000002D
:10231000014970470000FF070000F87F0EF1020E30
:102320002EF0030E5EF8046B364205D4012A43EB0F
:10233000030515F5001F12D8012841EB010C1CF50F
:10234000001F0CD80ED14FEAD17C15F5001F0CEB05
:102350004C0C0CF1020C08BF4CEBD37C04E04FF0AA
:10236000080C01E04FEAD37C0CEB4C0526FA05F68D
:1023700006F00706B6F1040C06D20EEB860CBDE89B
:1023800070404CF0010C6047DFE80CF0090B0202D2
:102390004FF000414FF00000A1F5002170BD19463B
:1023A0001046012851EB010418BFD4F5001484BF76
:1023B000002001F0004170BD0808A0F500114FEAAF
:1023C0003101704710B591EA030F48BF83F0004315
:1023D0003FF546AE841A71EB030C07D212198CF04C
:1023E000004C43EB0C03001B61EB0C01DFF8A4E194
:1023F0004FEA1154A4EB135C1EEA430F18BF9EEA88
:10240000445F00F0B08023EA6E03524221EA045197
:10241000C3EB6E0338BF5B1EDCF1200E25D322FA1E
:102420000CFE10EB0E0043FA0CFE41EB0E01CCF15A
:10243000200E03FA0EFE10EB0E0051F10001CCF15C
:10244000200E29D412FA0EF201EB0451BDE810401F
:1024500058BF7047401C1CBFB2F1004F70470028A6
:102460000CBF491C20F00100704712EB020E43EB39
:10247000030218BF4FF0010E4EEA4202ACF1200CED
:10248000DCF11E0E54D943FA0CFE10EB0E0051F194
:10249000FF31CCF11E0ED5D50EF1010E12FA0EFE53
:1024A000404141EB010101EB445C5FEA5C5C10D907
:1024B00010EBDE7001EB045138BFBEF1004FBDE8F8
:1024C000104018BF704700280CBF491C20F00100C5
:1024D000704730D24FEAD42C11F5001124F4006477
:1024E0001BD0B1FA81F20B3AA41AA41ED2F1200338
:1024F000914030FA03F31943904001EBCC71002C6A
:1025000001EB0451BDE81040A8BF704701F1C04184
:102510004FF0000001F000417047B0FA80F310FA6C
:1025200003F100D110BDE41A173C4805C90AE4E7DD
:1025300001EB045110BD491001EB0451BDE81040FE
:102540004FEA300002E04FF0000170474A0008BF38
:102550000042F8D0B2F5001F28BF704701F00041DB
:102560004FF0000070479EEA445F07D011EA5E0F0B
:10257000BDE8104004BF002100207047BDE81040B6
:1025800070B5FFF7CBFE00BF40DFF63E83F00041A1
:10259000104670470000E0FF43004FEAD30C4FEABB
:1025A0003C0C43401FBF40070CF1605113F0FE4F3D
:1025B00070471CF0006F03D100200CF00041704701
:1025C0000CF0004343EA507010B540EACC0000F034
:1025D0004FF800BF000000924FEA0001FFF7ECBE89
:1025E0004FF000414FF00000A1F50021704740106E
:1025F00058BFC0F14040491058BFC1F1404181422D
:10260000EFF300807047000050EA010C00F11380E6
:102610001CF5000F58BFBCF5000F01D4884270476D
:1026200007D710F5000F58BF11F5000F15D48842D9
:102630007047894270471CF5000F04D5BCF5000FA8
:10264000F7D5814270474FF0807C1CEB400F38BFBC
:102650001CEB410F01D28142704710B500F008F821
:10266000922449004FF000504FF08051FFF7BFBF58
:102670000EF1020E2EF0030E5EF8044B244204D439
:102680004FEA4102B2F17F4F11D84FEA4003B3F154
:102690007F4F0CD80ED14FEAD07CB2F17F4F0CEBBC
:1026A0004C0C0CF1020C08BF4CEBD17C04E04FF059
:1026B000080C01E04FEAD17C0CEB4C0324FA03F444
:1026C00004F00704B4F1040C06D20EEB840CBDE850
:1026D00010404CF0010C6047DFE80CF007080202E4
:1026E0004FF00040A0F5800010BD0846420018BF22
:1026F000D2F1807288BF00F0004010BDFF2141EA96
:10270000D050C005704751EA000C00F113801CF551
:10271000000F58BFBCF5000F01D48142704707D7A6
:1027200011F5000F58BF10F5000F15D48142704706
:10273000894270471CF5000F04D5BCF5000FF7D592
:10274000884270474FF0807C1CEB410F38BF1CEB78
:10275000400F01D28842704780EA010081EA0001FF
:1027600080EA0100FFF779BFFDF72EBF00000000EF
:1027700000000000002F0000000007000700001408
:102780007F147F1400242A7F2A1200626408132316
:1027900000364955225000000503000000001C22AD
:1027A0004100000041221C000014083E08140008EB
:1027B000083E0808000000A060000008080808089B
:1027C000000060600000002010080402003E514933
:1027D000453E0000427F40000042615149460021D1
:1027E00041454B31001814127F10002745454539EB
:1027F000003C4A4949300001710905030036494946
:10280000493600064949291E0000363600000000FE
:102810005636000000081422410000141414141449
:1028200000004122140800020151090600324959F2
:10283000513E007C1211127C007F49494936003E0E
:1028400041414122007F4141221C007F49494941C9
:10285000007F09090901003E4149497A007F0808C3
:10286000087F0000417F4100002040413F01007F80
:1028700008142241007F40404040007F020C027F4C
:10288000007F0408107F003E4141413E007F09095E
:102890000906003E4151215E007F09192946004684
:1028A000494949310001017F0101003F4040403F5B
:1028B000001F2040201F003F4038403F00631408A5
:1028C0001463000708700807006151494543000080
:1028D0007F41410000552A552A55000041417F00A3
:1028E0000004020102040040404040400000010298
:1028F0000400002054545478007F48444438003881
:102900004444442000384444487F00385454541808
:1029100000087E0901020018A4A4A47C007F08041A
:1029200004780000447D4000004080847D00007FEA
:10293000102844000000417F4000007C0418047807
:10294000007C0804047800384444443800FC242403
:1029500024180018242418FC007C080404080048EB
:102960005454542000043F444020003C4040207C0C
:10297000001C2040201C003C4030403C00442810FB
:102980002844001CA0A0A07C004464544C441414AF
:1029900014141414000000000000000000000000E7
:1029A00000000000000000F80000000000000033FC
:1029B0003000000000100C06100C060000000000A3
:1029C0000000000040C07840C0784000043F04048C
:1029D0003F040400007088FC08300000001820FF4D
:1029E000211E0000F008F000E018000000211C0388
:1029F0001E211E0000F00888700000001E21232404
:102A00001927211010160E00000000000000000021
:102A100000000000000000E01804020000000007B1
:102A20001820400000020418E000000000402018B8
:102A300007000000404080F0804040000202010F8B
:102A400001020200000000F0000000000101011F6F
:102A500001010100000000000000000080B07000D3
:102A60000000000000000000000000000001010163
:102A700001010101000000000000000000303000F2
:102A800000000000000000008060180400601806CC
:102A90000100000000E010080810E000000F102006
:102AA00020100F00001010F8000000000020203F50
:102AB00020200000007008080888700000302824DA
:102AC000222130000030088888483000001820207B
:102AD00020110E000000C02010F8000000070424A0
:102AE000243F240000F808888808080000192120E5
:102AF00020110E0000E0108888180000000F11203F
:102B000020110E0000380808C83808000000003FF7
:102B1000000000000070880808887000001C222156
:102B200021221C0000E010080810E0000000312203
:102B300022110F00000000C0C000000000000030A3
:102B400030000000000000800000000000008060F5
:102B50000000000000008040201008000001020476
:102B6000081020004040404040404000040404045D
:102B70000404040000081020408000000020100819
:102B800004020100007048080808F000000000304E
:102B900036010000C030C828E810E00007182724DC
:102BA00023140B000000C038E0000000203C23028A
:102BB0000227382008F8888888700000203F2020ED
:102BC00020110E00C030080808083800071820201F
:102BD0002010080008F808080810E000203F202016
:102BE00020100F0008F88888E8081000203F2020F7
:102BF0002320180008F88888E8081000203F2000EB
:102C000003000000C0300808083800000718202022
:102C1000221E020008F808000008F808203F2101E1
:102C200001213F20000808F8080800000020203F8C
:102C30002020000000000808F8080800C0808080FC
:102C40007F00000008F888C028180800203F2001F5
:102C50002638200008F8080000000000203F20204F
:102C60002020300008F8F800F8F80800203F003F66
:102C7000003F200008F830C00008F808203F20007E
:102C800007183F00E01008080810E0000F1020208F
:102C900020100F0008F808080808F000203F210164
:102CA00001010000E01008080810E0000F182424BB
:102CB00038504F0008F8888888887000203F20002E
:102CC000030C3020007088080808380000382021E4
:102CD00021221C00180808F8080818000000203FEE
:102CE0002000000008F808000008F808001F202055
:102CF00020201F000878880000C838080000073826
:102D00000E010000F80800F80008F800033C070076
:102D1000073C0300081868808068180820302C03DE
:102D2000032C30200838C800C83808000000203FB5
:102D30002000000010080808C838080020382621A4
:102D400020201800000000FE020202000000007FA8
:102D500040404000000C30C00000000000000001B6
:102D60000638C00000020202FE00000000404040A1
:102D70007F000000000004020202040000000000C6
:102D80000000000000000000000000008080808043
:102D9000808080800002020400000000000000002B
:102DA00000000000000080808080000000192422C4
:102DB00022223F2008F8008080000000003F112000
:102DC00020110E000000008080800000000E112005
:102DD00020201100000000808088F800000E1120E3
:102DE00020103F200000808080800000001F2222F1
:102DF00022221300008080F0888888180020203F5D
:102E0000202000000000808080808000006B94946F
:102E10009493600008F8008080800000203F21002B
:102E200000203F2000809898000000000020203FF4
:102E300020200000000000809898000000C08080E2
:102E4000807F000008F8000080808000203F24027E
:102E50002D302000000808F8000000000020203F6E
:102E6000202000008080808080808000203F200023
:102E70003F20003F8080008080800000203F2100B4
:102E800000203F200000808080800000001F202064
:102E900020201F00808000808000000080FFA12093
:102EA00020110E000000008080808000000E1120A4
:102EB00020A0FF80808080008080800020203F2133
:102EC00020000100000080808080800000332424E6
:102ED00024241900008080E0808000000000001F92
:102EE000202000008080000000808000001F202043
:102EF00020103F20808080000080808000010E3004
:102F00000806010080800080008080800F300C0364
:102F10000C300F0000808000808080000020312E67
:102F20000E312000808080000080808080818E7043
:102F30001806010000808080808080000021302CF5
:102F40002221300000000000807C0202000000000E
:102F5000003F404000000000FF00000000000000B3
:102F6000FF0000000002027C800000000040403FA3
:102F7000000000000006010102020404000000003D
:102F800000000000000202C2020202FE828282C22F
:102F9000830200004040407F4040407F404040402E
:102FA000406040002018080AECA8A8AFA8A8EC0AC6
:102FB000082818000000003E020202FF0222423FE1
:102FC00002000000404244C800080848880808FF82
:102FD000080800000040201F204040404148504F5A
:102FE00040602000040404F494949596949494F41E
:102FF0000406040000FE02027A4A4A4A4A4A7A0259
:1030000082FF020002400000000000A0000000005B
:1030100005400000000000C8000000000C40000057
:103020000000409C00000000194000000020BCBED1
:103030000000000034400000BFC91B8E00000004E7
:10304000B5400000504BCFD06607E2CF0100000032
:103050006C4100003E8251AADFEEA734010000005F
:10306000D9420000DCB5A0E23A301F97FFFFFFFF16
:10307000B4450000FD25A0C8E9A3C14FFFFFFFFF35
:10308000FF3F00000000008000000000FF3F000044
:103090000000008000000000D43000080000002084
:1030A0007806000028010008B434000878060020E3
:1030B000600600008C0100081C00000043000000B6
:1030C000F8FFFFFF0C0000000E0000000F000000E2
:1030D0002E000000500600A24A040001400901022F
:1030E0000304060708090E13F0100122FF0503125E
:1030F000F00001130F040122FF0502110F1E100939
:103100004040405F5555557504125F0C0111210078
:103110000C11200F094989790909090F201F20087E
:1031200000FE02424ACA4A030004114202FE200085
:103130000E12FF40504C4340404F50505C40FFA0A7
:1031400013F8880122FF050213F8C0131F0801229B
:103150007F2003109F80E233808201040913E2A2E2
:10316000928A86828080020005140040807F1910B8
:103170000C00002424A4FEA3220022CCAA05123EA7
:103180002407080601FF00013EF00604FF020202C8
:103190009E357C539008C3F20840000F100444820F
:1031A0007F01808040432C10284681A010094040B8
:1031B000484848C8784F0607124848801144040917
:1031C000130312122222528A061F3004106080BAA2
:1031D00011040713C030E0140443407FE6040412D6
:1031E0007F4241E0013EC02141000B1110D030FF71
:1031F00030D0121C10101F3005080402019E00057B
:10320000110102040821080E1000FE222222FE00F5
:10321000FE828292A29E1E180880601F0242827F58
:10322000470405122F102C43E0040B1290884C57D2
:10323000A42454548C843C100801018042221A07B3
:1032400044040610423E010101E1080E1204E42488
:103250002CB4252624B42C24E404A0080B12FF026D
:10326000011E1212121E41824528072030AC632035
:10327000101F1C04FC0406A203140722672212126A
:10328000527625753660703005FE9292920421D0F8
:103290001C0744442425140C90032C070C142524EB
:1032A0004444C10346E0BE18040020401F880408BF
:1032B0000403B02406010E0000FCDB1702E2241810
:1032C000042222E2801C04874030C8031E1F5903D9
:1032D0002F0810D103380D08C848494E48F8484C0B
:1032E0004B4878EC28064322120A06AC2804122226
:1032F0001E1F43028C834181100A04047E01407E1C
:1033000042427E0223427EA01406FC242424FC01B7
:1033100021082C10040040308F80844C5525252531
:10332000554C80500334063E22E2223EA5318020D7
:103330000A203F201F1111007F4401134740501CF9
:103340000B04F484D4A5A6A4D484F426032D10047D
:10335000101502123A1613121A3242827E0000062B
:103360000909E6F80C048F3C050202041E530324ED
:1033700005071F3020211B402030297A3A88C038A9
:10338000068888C88C084F32101019583F181060F2
:1033900003140A90544454E5466454462F100F0217
:1033A00042817F0202828A5722324EC203902C064B
:1033B000F827F42CE4050511311013F81000807F74
:1033C000097F89FF004FC4447F243427C0402290E6
:1033D0000119E523121450140C002060201F101056
:1033E0000801061870062070C0340A80E018171013
:1033F000907000FF9F240700014020110AA425B20D
:10340000141101030010226C0080FC04F404FE047B
:10341000F80061240D0404FE014027100F1067001E
:1034200047C654061022640C808053FF022005100A
:103430008015411405FC243426802C0F209F8042E7
:1034400042262A122A264240C040A0032C0511D64B
:10345000309848053D3D042D4F034C04FF010252B6
:103460000311873C0F804020F847309294909F9042
:10347000D4925001041DEC05440A4464544C445455
:1034800064C604404E505F03479F02402D96052CB2
:1034900018221408162160200080928ABFAABBCA95
:1034A000FA84A7AA92AEE2A0510643EAAA012EEA44
:0434B00034050000DF
:04000005080000ED02
:00000001FF
